{
  "_format": "hh-sol-artifact-1",
  "contractName": "AgentEscrow",
  "sourceName": "contracts/AgentEscrow.sol",
  "abi": [
    {
      "inputs": [],
      "stateMutability": "nonpayable",
      "type": "constructor"
    },
    {
      "inputs": [
        {
          "internalType": "address",
          "name": "owner",
          "type": "address"
        }
      ],
      "name": "OwnableInvalidOwner",
      "type": "error"
    },
    {
      "inputs": [
        {
          "internalType": "address",
          "name": "account",
          "type": "address"
        }
      ],
      "name": "OwnableUnauthorizedAccount",
      "type": "error"
    },
    {
      "inputs": [
        {
          "internalType": "address",
          "name": "token",
          "type": "address"
        }
      ],
      "name": "SafeERC20FailedOperation",
      "type": "error"
    },
    {
      "anonymous": false,
      "inputs": [
        {
          "indexed": true,
          "internalType": "bytes32",
          "name": "jobId",
          "type": "bytes32"
        },
        {
          "indexed": false,
          "internalType": "uint256",
          "name": "paidAmount",
          "type": "uint256"
        }
      ],
      "name": "JobCompleted",
      "type": "event"
    },
    {
      "anonymous": false,
      "inputs": [
        {
          "indexed": true,
          "internalType": "bytes32",
          "name": "jobId",
          "type": "bytes32"
        },
        {
          "indexed": false,
          "internalType": "address",
          "name": "client",
          "type": "address"
        },
        {
          "indexed": false,
          "internalType": "address",
          "name": "agent",
          "type": "address"
        },
        {
          "indexed": false,
          "internalType": "address",
          "name": "token",
          "type": "address"
        },
        {
          "indexed": false,
          "internalType": "uint256",
          "name": "amount",
          "type": "uint256"
        }
      ],
      "name": "JobCreated",
      "type": "event"
    },
    {
      "anonymous": false,
      "inputs": [
        {
          "indexed": true,
          "internalType": "bytes32",
          "name": "jobId",
          "type": "bytes32"
        },
        {
          "indexed": false,
          "internalType": "uint256",
          "name": "amount",
          "type": "uint256"
        }
      ],
      "name": "JobFunded",
      "type": "event"
    },
    {
      "anonymous": false,
      "inputs": [
        {
          "indexed": true,
          "internalType": "bytes32",
          "name": "jobId",
          "type": "bytes32"
        },
        {
          "indexed": false,
          "internalType": "uint256",
          "name": "refundAmount",
          "type": "uint256"
        }
      ],
      "name": "JobRefunded",
      "type": "event"
    },
    {
      "anonymous": false,
      "inputs": [
        {
          "indexed": true,
          "internalType": "bytes32",
          "name": "jobId",
          "type": "bytes32"
        }
      ],
      "name": "JobRejected",
      "type": "event"
    },
    {
      "anonymous": false,
      "inputs": [
        {
          "indexed": true,
          "internalType": "bytes32",
          "name": "jobId",
          "type": "bytes32"
        }
      ],
      "name": "JobSubmitted",
      "type": "event"
    },
    {
      "anonymous": false,
      "inputs": [
        {
          "indexed": true,
          "internalType": "address",
          "name": "previousOwner",
          "type": "address"
        },
        {
          "indexed": true,
          "internalType": "address",
          "name": "newOwner",
          "type": "address"
        }
      ],
      "name": "OwnershipTransferred",
      "type": "event"
    },
    {
      "inputs": [
        {
          "internalType": "bytes32",
          "name": "jobId",
          "type": "bytes32"
        }
      ],
      "name": "completeJob",
      "outputs": [],
      "stateMutability": "nonpayable",
      "type": "function"
    },
    {
      "inputs": [
        {
          "internalType": "bytes32",
          "name": "jobId",
          "type": "bytes32"
        },
        {
          "internalType": "address",
          "name": "agent",
          "type": "address"
        },
        {
          "internalType": "address",
          "name": "token",
          "type": "address"
        },
        {
          "internalType": "uint256",
          "name": "amount",
          "type": "uint256"
        },
        {
          "internalType": "string",
          "name": "intentHash",
          "type": "string"
        }
      ],
      "name": "createJob",
      "outputs": [],
      "stateMutability": "nonpayable",
      "type": "function"
    },
    {
      "inputs": [
        {
          "internalType": "bytes32",
          "name": "jobId",
          "type": "bytes32"
        }
      ],
      "name": "fundJob",
      "outputs": [],
      "stateMutability": "nonpayable",
      "type": "function"
    },
    {
      "inputs": [
        {
          "internalType": "bytes32",
          "name": "jobId",
          "type": "bytes32"
        }
      ],
      "name": "getJob",
      "outputs": [
        {
          "components": [
            {
              "internalType": "bytes32",
              "name": "jobId",
              "type": "bytes32"
            },
            {
              "internalType": "address",
              "name": "client",
              "type": "address"
            },
            {
              "internalType": "address",
              "name": "agent",
              "type": "address"
            },
            {
              "internalType": "address",
              "name": "token",
              "type": "address"
            },
            {
              "internalType": "uint256",
              "name": "amount",
              "type": "uint256"
            },
            {
              "internalType": "enum AgentEscrow.JobStatus",
              "name": "status",
              "type": "uint8"
            },
            {
              "internalType": "string",
              "name": "intentHash",
              "type": "string"
            },
            {
              "internalType": "uint256",
              "name": "createdAt",
              "type": "uint256"
            },
            {
              "internalType": "uint256",
              "name": "completedAt",
              "type": "uint256"
            }
          ],
          "internalType": "struct AgentEscrow.Job",
          "name": "",
          "type": "tuple"
        }
      ],
      "stateMutability": "view",
      "type": "function"
    },
    {
      "inputs": [
        {
          "internalType": "uint256",
          "name": "",
          "type": "uint256"
        }
      ],
      "name": "jobIds",
      "outputs": [
        {
          "internalType": "bytes32",
          "name": "",
          "type": "bytes32"
        }
      ],
      "stateMutability": "view",
      "type": "function"
    },
    {
      "inputs": [
        {
          "internalType": "bytes32",
          "name": "",
          "type": "bytes32"
        }
      ],
      "name": "jobs",
      "outputs": [
        {
          "internalType": "bytes32",
          "name": "jobId",
          "type": "bytes32"
        },
        {
          "internalType": "address",
          "name": "client",
          "type": "address"
        },
        {
          "internalType": "address",
          "name": "agent",
          "type": "address"
        },
        {
          "internalType": "address",
          "name": "token",
          "type": "address"
        },
        {
          "internalType": "uint256",
          "name": "amount",
          "type": "uint256"
        },
        {
          "internalType": "enum AgentEscrow.JobStatus",
          "name": "status",
          "type": "uint8"
        },
        {
          "internalType": "string",
          "name": "intentHash",
          "type": "string"
        },
        {
          "internalType": "uint256",
          "name": "createdAt",
          "type": "uint256"
        },
        {
          "internalType": "uint256",
          "name": "completedAt",
          "type": "uint256"
        }
      ],
      "stateMutability": "view",
      "type": "function"
    },
    {
      "inputs": [],
      "name": "owner",
      "outputs": [
        {
          "internalType": "address",
          "name": "",
          "type": "address"
        }
      ],
      "stateMutability": "view",
      "type": "function"
    },
    {
      "inputs": [
        {
          "internalType": "bytes32",
          "name": "jobId",
          "type": "bytes32"
        }
      ],
      "name": "rejectJob",
      "outputs": [],
      "stateMutability": "nonpayable",
      "type": "function"
    },
    {
      "inputs": [],
      "name": "renounceOwnership",
      "outputs": [],
      "stateMutability": "nonpayable",
      "type": "function"
    },
    {
      "inputs": [
        {
          "internalType": "bytes32",
          "name": "jobId",
          "type": "bytes32"
        }
      ],
      "name": "submitJob",
      "outputs": [],
      "stateMutability": "nonpayable",
      "type": "function"
    },
    {
      "inputs": [],
      "name": "totalJobs",
      "outputs": [
        {
          "internalType": "uint256",
          "name": "",
          "type": "uint256"
        }
      ],
      "stateMutability": "view",
      "type": "function"
    },
    {
      "inputs": [
        {
          "internalType": "address",
          "name": "newOwner",
          "type": "address"
        }
      ],
      "name": "transferOwnership",
      "outputs": [],
      "stateMutability": "nonpayable",
      "type": "function"
    }
  ],
  "bytecode": "0x608060405234801561001057600080fd5b50338061003757604051631e4fbdf760e01b81526000600482015260240160405180910390fd5b61004081610046565b50610096565b600080546001600160a01b038381166001600160a01b0319831681178455604051919092169283917f8be0079c531659141344cd1fd0a4f28419497f9722a3daafe3b4186f6b6457e09190a35050565b611303806100a56000396000f3fe608060405234801561001057600080fd5b50600436106100b45760003560e01c80638da5cb5b116100715780638da5cb5b1461013b578063945695ac14610156578063991e013914610169578063d89724911461017c578063f2fde38b1461018f578063f729cf0d146101a257600080fd5b80631ace87b3146100b957806338ed7cfc146100d05780634162cc88146100f857806345330bc31461010b578063715018a6146101205780638b13e85b14610128575b600080fd5b6002545b6040519081526020015b60405180910390f35b6100e36100de366004610eb9565b6101c2565b6040516100c799989796959493929190610f50565b6100bd610106366004610eb9565b6102a8565b61011e610119366004610eb9565b6102c9565b005b61011e610430565b61011e610136366004610eb9565b610444565b6000546040516001600160a01b0390911681526020016100c7565b61011e610164366004610fd3565b610561565b61011e610177366004610eb9565b61087b565b61011e61018a366004610eb9565b610987565b61011e61019d366004611079565b610af4565b6101b56101b0366004610eb9565b610b32565b6040516100c7919061109b565b600160208190526000918252604090912080549181015460028201546003830154600484015460058501546006860180546001600160a01b03968716979587169690941694929360ff909216929161021990611146565b80601f016020809104026020016040519081016040528092919081815260200182805461024590611146565b80156102925780601f1061026757610100808354040283529160200191610292565b820191906000526020600020905b81548152906001019060200180831161027557829003601f168201915b5050505050908060070154908060080154905089565b600281815481106102b857600080fd5b600091825260209091200154905081565b600081815260016020526040812060078101549091036103045760405162461bcd60e51b81526004016102fb90611180565b60405180910390fd5b600060058083015460ff169081111561031f5761031f610ed2565b1461036c5760405162461bcd60e51b815260206004820152601960248201527f4a6f62206e6f7420696e2043726561746564207374617475730000000000000060448201526064016102fb565b60018101546001600160a01b031633146103bf5760405162461bcd60e51b815260206004820152601460248201527313db9b1e4818db1a595b9d0818d85b88199d5b9960621b60448201526064016102fb565b600481015460038201546103e2916001600160a01b039091169033903090610cee565b60058101805460ff19166001179055600481015460405190815282907f8220b978cac568b980751c54df59af3be6c1d3bd9874232210cc1cf89740142b906020015b60405180910390a25050565b610438610d2a565b6104426000610d57565b565b600081815260016020526040812060078101549091036104765760405162461bcd60e51b81526004016102fb90611180565b600160058083015460ff169081111561049157610491610ed2565b146104cf5760405162461bcd60e51b815260206004820152600e60248201526d129bd8881b9bdd08199d5b99195960921b60448201526064016102fb565b60028101546001600160a01b031633146105235760405162461bcd60e51b815260206004820152601560248201527413db9b1e481859d95b9d0818d85b881cdd589b5a5d605a1b60448201526064016102fb565b60058101805460ff1916600217905560405182907fe99606d9d3f9fd392c5f001dde561ac2ecf166213442be7d0c4c2947e35bac2790600090a25050565b600086815260016020526040902060070154156105b55760405162461bcd60e51b81526020600482015260126024820152714a6f6220616c72656164792065786973747360701b60448201526064016102fb565b6001600160a01b0385166105fb5760405162461bcd60e51b815260206004820152600d60248201526c125b9d985b1a59081859d95b9d609a1b60448201526064016102fb565b6001600160a01b0384166106415760405162461bcd60e51b815260206004820152600d60248201526c24b73b30b634b2103a37b5b2b760991b60448201526064016102fb565b600083116106865760405162461bcd60e51b81526020600482015260126024820152710416d6f756e74206d757374206265203e20360741b60448201526064016102fb565b604051806101200160405280878152602001336001600160a01b03168152602001866001600160a01b03168152602001856001600160a01b03168152602001848152602001600060058111156106de576106de610ed2565b815260200183838080601f016020809104026020016040519081016040528093929190818152602001838380828437600092018290525093855250504260208085019190915260409384018390528a8352600180825292849020855181559085015181840180546001600160a01b03199081166001600160a01b03938416179091559486015160028301805487169183169190911790556060860151600383018054909616911617909355506080830151600483015560a0830151600580840180549293909260ff19169184908111156107ba576107ba610ed2565b021790555060c082015160068201906107d3908261120d565b5060e0820151600782015561010090910151600890910155600280546001810182556000919091527f405787fa12a823e0f2b7631cc41b3ba8828b3321ca811111fa75cd3aa3bb5ace01869055604080513381526001600160a01b03878116602083015286168183015260608101859052905187917fd47f213afd8a4f8307b72067753df365f5ddfca56f6a3675b8849c11f5def6d6919081900360800190a2505050505050565b610883610d2a565b600081815260016020526040812060078101549091036108b55760405162461bcd60e51b81526004016102fb90611180565b600260058083015460ff16908111156108d0576108d0610ed2565b146109115760405162461bcd60e51b8152602060048201526011602482015270129bd8881b9bdd081cdd589b5a5d1d1959607a1b60448201526064016102fb565b60058101805460ff191660039081179091554260088301556002820154600483015491830154610951926001600160a01b03918216929190911690610da7565b817f9b5ed714c31dfcb1a9397710b6fc1842f37d94ab5dc0ccb528d9a2c97ea76f2a826004015460405161042491815260200190565b61098f610d2a565b600081815260016020526040812060078101549091036109c15760405162461bcd60e51b81526004016102fb90611180565b600260058083015460ff16908111156109dc576109dc610ed2565b1480610a005750600160058083015460ff16908111156109fe576109fe610ed2565b145b610a455760405162461bcd60e51b8152602060048201526016602482015275129bd88818d85b9b9bdd081899481c995a9958dd195960521b60448201526064016102fb565b60058101805460ff1916600490811790915581015415610ac557600181015460048201546003830154610a86926001600160a01b0391821692911690610da7565b817f1494bfe8efa0e2bbd1d8d660814b17e96af821c67cd5eb078f078b4c14b6ed978260040154604051610abc91815260200190565b60405180910390a25b60405182907f3ce50029b3ee325920d6d761a110b969305ae54c20467bcb2ebd1d52f14b67bb90600090a25050565b610afc610d2a565b6001600160a01b038116610b2657604051631e4fbdf760e01b8152600060048201526024016102fb565b610b2f81610d57565b50565b610b81604080516101208101825260008082526020820181905291810182905260608101829052608081018290529060a082019081526020016060815260200160008152602001600081525090565b6000828152600160205260408120600701549003610bb15760405162461bcd60e51b81526004016102fb90611180565b60008281526001602081815260409283902083516101208101855281548152928101546001600160a01b0390811692840192909252600281015482169383019390935260038301541660608201526004820154608082015260058083015491929160a084019160ff90911690811115610c2c57610c2c610ed2565b6005811115610c3d57610c3d610ed2565b8152602001600682018054610c5190611146565b80601f0160208091040260200160405190810160405280929190818152602001828054610c7d90611146565b8015610cca5780601f10610c9f57610100808354040283529160200191610cca565b820191906000526020600020905b815481529060010190602001808311610cad57829003601f168201915b50505050508152602001600782015481526020016008820154815250509050919050565b610cfc848484846001610de1565b610d2457604051635274afe760e01b81526001600160a01b03851660048201526024016102fb565b50505050565b6000546001600160a01b031633146104425760405163118cdaa760e01b81523360048201526024016102fb565b600080546001600160a01b038381166001600160a01b0319831681178455604051919092169283917f8be0079c531659141344cd1fd0a4f28419497f9722a3daafe3b4186f6b6457e09190a35050565b610db48383836001610e53565b610ddc57604051635274afe760e01b81526001600160a01b03841660048201526024016102fb565b505050565b6040516323b872dd60e01b60008181526001600160a01b038781166004528616602452604485905291602083606481808c5af192506001600051148316610e41578383151615610e34573d6000823e3d81fd5b6000883b113d1516831692505b60405250600060605295945050505050565b60405163a9059cbb60e01b60008181526001600160a01b038616600452602485905291602083604481808b5af192506001600051148316610ead578383151615610ea0573d6000823e3d81fd5b6000873b113d1516831692505b60405250949350505050565b600060208284031215610ecb57600080fd5b5035919050565b634e487b7160e01b600052602160045260246000fd5b60068110610f0657634e487b7160e01b600052602160045260246000fd5b9052565b6000815180845260005b81811015610f3057602081850181015186830182015201610f14565b506000602082860101526020601f19601f83011685010191505092915050565b8981526001600160a01b038981166020830152888116604083015287166060820152608081018690526000610120610f8b60a0840188610ee8565b8060c0840152610f9d81840187610f0a565b60e084019590955250506101000152979650505050505050565b80356001600160a01b0381168114610fce57600080fd5b919050565b60008060008060008060a08789031215610fec57600080fd5b86359550610ffc60208801610fb7565b945061100a60408801610fb7565b935060608701359250608087013567ffffffffffffffff8082111561102e57600080fd5b818901915089601f83011261104257600080fd5b81358181111561105157600080fd5b8a602082850101111561106357600080fd5b6020830194508093505050509295509295509295565b60006020828403121561108b57600080fd5b61109482610fb7565b9392505050565b6020815281516020820152600060208301516110c260408401826001600160a01b03169052565b5060408301516001600160a01b03811660608401525060608301516001600160a01b038116608084015250608083015160a083015260a083015161110960c0840182610ee8565b5060c08301516101208060e0850152611126610140850183610f0a565b60e086015161010086810191909152909501519301929092525090919050565b600181811c9082168061115a57607f821691505b60208210810361117a57634e487b7160e01b600052602260045260246000fd5b50919050565b6020808252600d908201526c129bd8881b9bdd08199bdd5b99609a1b604082015260600190565b634e487b7160e01b600052604160045260246000fd5b601f821115610ddc576000816000526020600020601f850160051c810160208610156111e65750805b601f850160051c820191505b81811015611205578281556001016111f2565b505050505050565b815167ffffffffffffffff811115611227576112276111a7565b61123b816112358454611146565b846111bd565b602080601f83116001811461127057600084156112585750858301515b600019600386901b1c1916600185901b178555611205565b600085815260208120601f198616915b8281101561129f57888601518255948401946001909101908401611280565b50858210156112bd5787850151600019600388901b60f8161c191681555b5050505050600190811b0190555056fea26469706673582212200ce679b5d3b81107c94537b2f8a6be57cf3a3ba4406447e26d9e6fb9e99b300964736f6c63430008180033",
  "linkReferences": {},
  "deployedLinkReferences": {}
}